{
  "contractName": "ERC721Connector",
  "abi": [
    {
      "inputs": [
        {
          "internalType": "string",
          "name": "name",
          "type": "string"
        },
        {
          "internalType": "string",
          "name": "symbol",
          "type": "string"
        }
      ],
      "stateMutability": "nonpayable",
      "type": "constructor"
    },
    {
      "anonymous": false,
      "inputs": [
        {
          "indexed": true,
          "internalType": "address",
          "name": "_owner",
          "type": "address"
        },
        {
          "indexed": true,
          "internalType": "address",
          "name": "_approved",
          "type": "address"
        },
        {
          "indexed": true,
          "internalType": "uint256",
          "name": "_tokenId",
          "type": "uint256"
        }
      ],
      "name": "Approval",
      "type": "event"
    },
    {
      "anonymous": false,
      "inputs": [
        {
          "indexed": true,
          "internalType": "address",
          "name": "_from",
          "type": "address"
        },
        {
          "indexed": true,
          "internalType": "address",
          "name": "_to",
          "type": "address"
        },
        {
          "indexed": true,
          "internalType": "uint256",
          "name": "_tokenId",
          "type": "uint256"
        }
      ],
      "name": "Transfer",
      "type": "event"
    },
    {
      "inputs": [],
      "name": "_name",
      "outputs": [
        {
          "internalType": "string",
          "name": "",
          "type": "string"
        }
      ],
      "stateMutability": "view",
      "type": "function"
    },
    {
      "inputs": [],
      "name": "_symbol",
      "outputs": [
        {
          "internalType": "string",
          "name": "",
          "type": "string"
        }
      ],
      "stateMutability": "view",
      "type": "function"
    },
    {
      "inputs": [
        {
          "internalType": "address",
          "name": "_to",
          "type": "address"
        },
        {
          "internalType": "uint256",
          "name": "_tokenId",
          "type": "uint256"
        }
      ],
      "name": "approve",
      "outputs": [],
      "stateMutability": "nonpayable",
      "type": "function"
    },
    {
      "inputs": [
        {
          "internalType": "address",
          "name": "_owner",
          "type": "address"
        }
      ],
      "name": "balanceOf",
      "outputs": [
        {
          "internalType": "uint256",
          "name": "",
          "type": "uint256"
        }
      ],
      "stateMutability": "view",
      "type": "function"
    },
    {
      "inputs": [],
      "name": "name",
      "outputs": [
        {
          "internalType": "string",
          "name": "",
          "type": "string"
        }
      ],
      "stateMutability": "view",
      "type": "function"
    },
    {
      "inputs": [
        {
          "internalType": "uint256",
          "name": "_tokenId",
          "type": "uint256"
        }
      ],
      "name": "ownerOf",
      "outputs": [
        {
          "internalType": "address",
          "name": "",
          "type": "address"
        }
      ],
      "stateMutability": "view",
      "type": "function"
    },
    {
      "inputs": [
        {
          "internalType": "bytes4",
          "name": "interfaceID",
          "type": "bytes4"
        }
      ],
      "name": "supportsInterface",
      "outputs": [
        {
          "internalType": "bool",
          "name": "",
          "type": "bool"
        }
      ],
      "stateMutability": "view",
      "type": "function"
    },
    {
      "inputs": [],
      "name": "symbol",
      "outputs": [
        {
          "internalType": "string",
          "name": "",
          "type": "string"
        }
      ],
      "stateMutability": "view",
      "type": "function"
    },
    {
      "inputs": [
        {
          "internalType": "uint256",
          "name": "index",
          "type": "uint256"
        }
      ],
      "name": "tokenByIndex",
      "outputs": [
        {
          "internalType": "uint256",
          "name": "",
          "type": "uint256"
        }
      ],
      "stateMutability": "view",
      "type": "function"
    },
    {
      "inputs": [
        {
          "internalType": "address",
          "name": "owner",
          "type": "address"
        },
        {
          "internalType": "uint256",
          "name": "index",
          "type": "uint256"
        }
      ],
      "name": "tokenOfOwnerByIndex",
      "outputs": [
        {
          "internalType": "uint256",
          "name": "",
          "type": "uint256"
        }
      ],
      "stateMutability": "view",
      "type": "function"
    },
    {
      "inputs": [],
      "name": "totalSupply",
      "outputs": [
        {
          "internalType": "uint256",
          "name": "",
          "type": "uint256"
        }
      ],
      "stateMutability": "view",
      "type": "function"
    },
    {
      "inputs": [
        {
          "internalType": "address",
          "name": "_from",
          "type": "address"
        },
        {
          "internalType": "address",
          "name": "_to",
          "type": "address"
        },
        {
          "internalType": "uint256",
          "name": "_tokenId",
          "type": "uint256"
        }
      ],
      "name": "transferFrom",
      "outputs": [],
      "stateMutability": "nonpayable",
      "type": "function"
    }
  ],
  "bytecode": "0x60806040523480156200001157600080fd5b5060405162001b7538038062001b758339818101604052810190620000379190620004e7565b81816200006a7f01ffc9a7a5cef8baa21ed3c5c0d7e23accb804b619e9333b597f47a0d84076e2620001c360201b60201c565b620000bd7f13b182f4c0e5b2efbac0efe6cf6d756c8b89f4b79c5707a043ed9ea740574ee97f7feaf19471f34a12a7eaf32d5f3090aa2260ea8624dc8a138e74e0bf0f62307618620001c360201b60201c565b8160019080519060200190620000d59291906200029a565b508060029080519060200190620000ee9291906200029a565b505050620001467f3a6eb71757dfc6e784c1459d26270140c2c147d95ca985c80026fc5301c3eca1807f8a7e378434598edc36d108689a030cbc9d7d465de4f74c71bae1028eed6a881b1818620001c360201b60201c565b620001bb7f8230223f691b981717299fae9549350a0d894555723531f02108b1f522c1a7977f6da5e1284143cdd2d15038a59bde3be031250f00291d64494c12d967b3a4e0c37fc53637662700e6c65104059db8bba34439e0c32483ab7c34e3ccae52c73954951818620001c360201b60201c565b505062000653565b63ffffffff60e01b817bffffffffffffffffffffffffffffffffffffffffffffffffffffffff1916036200022e576040517f08c379a00000000000000000000000000000000000000000000000000000000081526004016200022590620005cd565b60405180910390fd5b6001600080837bffffffffffffffffffffffffffffffffffffffffffffffffffffffff19167bffffffffffffffffffffffffffffffffffffffffffffffffffffffff1916815260200190815260200160002060006101000a81548160ff02191690831515021790555050565b828054620002a8906200061e565b90600052602060002090601f016020900481019282620002cc576000855562000318565b82601f10620002e757805160ff191683800117855562000318565b8280016001018555821562000318579182015b8281111562000317578251825591602001919060010190620002fa565b5b5090506200032791906200032b565b5090565b5b80821115620003465760008160009055506001016200032c565b5090565b6000604051905090565b600080fd5b600080fd5b600080fd5b600080fd5b6000601f19601f8301169050919050565b7f4e487b7100000000000000000000000000000000000000000000000000000000600052604160045260246000fd5b620003b38262000368565b810181811067ffffffffffffffff82111715620003d557620003d462000379565b5b80604052505050565b6000620003ea6200034a565b9050620003f88282620003a8565b919050565b600067ffffffffffffffff8211156200041b576200041a62000379565b5b620004268262000368565b9050602081019050919050565b60005b838110156200045357808201518184015260208101905062000436565b8381111562000463576000848401525b50505050565b6000620004806200047a84620003fd565b620003de565b9050828152602081018484840111156200049f576200049e62000363565b5b620004ac84828562000433565b509392505050565b600082601f830112620004cc57620004cb6200035e565b5b8151620004de84826020860162000469565b91505092915050565b6000806040838503121562000501576200050062000354565b5b600083015167ffffffffffffffff81111562000522576200052162000359565b5b6200053085828601620004b4565b925050602083015167ffffffffffffffff81111562000554576200055362000359565b5b6200056285828601620004b4565b9150509250929050565b600082825260208201905092915050565b7f496e76616c696420696e74657266616365207265717565737400000000000000600082015250565b6000620005b56019836200056c565b9150620005c2826200057d565b602082019050919050565b60006020820190508181036000830152620005e881620005a6565b9050919050565b7f4e487b7100000000000000000000000000000000000000000000000000000000600052602260045260246000fd5b600060028204905060018216806200063757607f821691505b6020821081036200064d576200064c620005ef565b5b50919050565b61151280620006636000396000f3fe608060405234801561001057600080fd5b50600436106100b45760003560e01c80634f6ccce7116100715780634f6ccce71461018d5780636352211e146101bd57806370a08231146101ed57806395d89b411461021d578063b09f12661461023b578063d28d885214610259576100b4565b806301ffc9a7146100b957806306fdde03146100e9578063095ea7b31461010757806318160ddd1461012357806323b872dd146101415780632f745c591461015d575b600080fd5b6100d360048036038101906100ce9190610d15565b610277565b6040516100e09190610d5d565b60405180910390f35b6100f16102de565b6040516100fe9190610e11565b60405180910390f35b610121600480360381019061011c9190610ec7565b610370565b005b61012b61050b565b6040516101389190610f16565b60405180910390f35b61015b60048036038101906101569190610f31565b610518565b005b61017760048036038101906101729190610ec7565b61053b565b6040516101849190610f16565b60405180910390f35b6101a760048036038101906101a29190610f84565b6105eb565b6040516101b49190610f16565b60405180910390f35b6101d760048036038101906101d29190610f84565b61065c565b6040516101e49190610fc0565b60405180910390f35b61020760048036038101906102029190610fdb565b61070d565b6040516102149190610f16565b60405180910390f35b6102256107c4565b6040516102329190610e11565b60405180910390f35b610243610856565b6040516102509190610e11565b60405180910390f35b6102616108e4565b60405161026e9190610e11565b60405180910390f35b6000806000837bffffffffffffffffffffffffffffffffffffffffffffffffffffffff19167bffffffffffffffffffffffffffffffffffffffffffffffffffffffff1916815260200190815260200160002060009054906101000a900460ff169050919050565b6060600180546102ed90611037565b80601f016020809104026020016040519081016040528092919081815260200182805461031990611037565b80156103665780601f1061033b57610100808354040283529160200191610366565b820191906000526020600020905b81548152906001019060200180831161034957829003601f168201915b5050505050905090565b600061037b8261065c565b90508073ffffffffffffffffffffffffffffffffffffffff168373ffffffffffffffffffffffffffffffffffffffff16036103eb576040517f08c379a00000000000000000000000000000000000000000000000000000000081526004016103e2906110da565b60405180910390fd5b8073ffffffffffffffffffffffffffffffffffffffff163373ffffffffffffffffffffffffffffffffffffffff1614610459576040517f08c379a000000000000000000000000000000000000000000000000000000000815260040161045090611146565b60405180910390fd5b826005600084815260200190815260200160002060006101000a81548173ffffffffffffffffffffffffffffffffffffffff021916908373ffffffffffffffffffffffffffffffffffffffff160217905550818373ffffffffffffffffffffffffffffffffffffffff168273ffffffffffffffffffffffffffffffffffffffff167f8c5be1e5ebec7d5bd14f71427d1e84f3dd0314c0f7b2291e5b200ac8c7c3b92560405160405180910390a4505050565b6000600680549050905090565b6105223382610972565b61052b57600080fd5b610536838383610a01565b505050565b60006105468361070d565b8210610587576040517f08c379a000000000000000000000000000000000000000000000000000000000815260040161057e906111b2565b60405180910390fd5b600860008473ffffffffffffffffffffffffffffffffffffffff1673ffffffffffffffffffffffffffffffffffffffff16815260200190815260200160002082815481106105d8576105d76111d2565b5b9060005260206000200154905092915050565b60006105f561050b565b8210610636576040517f08c379a000000000000000000000000000000000000000000000000000000000815260040161062d906111b2565b60405180910390fd5b6006828154811061064a576106496111d2565b5b90600052602060002001549050919050565b6000806003600084815260200190815260200160002060009054906101000a900473ffffffffffffffffffffffffffffffffffffffff169050600073ffffffffffffffffffffffffffffffffffffffff168173ffffffffffffffffffffffffffffffffffffffff1603610704576040517f08c379a00000000000000000000000000000000000000000000000000000000081526004016106fb90611273565b60405180910390fd5b80915050919050565b60008073ffffffffffffffffffffffffffffffffffffffff168273ffffffffffffffffffffffffffffffffffffffff160361077d576040517f08c379a000000000000000000000000000000000000000000000000000000000815260040161077490611273565b60405180910390fd5b600460008373ffffffffffffffffffffffffffffffffffffffff1673ffffffffffffffffffffffffffffffffffffffff168152602001908152602001600020549050919050565b6060600280546107d390611037565b80601f01602080910402602001604051908101604052809291908181526020018280546107ff90611037565b801561084c5780601f106108215761010080835404028352916020019161084c565b820191906000526020600020905b81548152906001019060200180831161082f57829003601f168201915b5050505050905090565b6002805461086390611037565b80601f016020809104026020016040519081016040528092919081815260200182805461088f90611037565b80156108dc5780601f106108b1576101008083540402835291602001916108dc565b820191906000526020600020905b8154815290600101906020018083116108bf57829003601f168201915b505050505081565b600180546108f190611037565b80601f016020809104026020016040519081016040528092919081815260200182805461091d90611037565b801561096a5780601f1061093f5761010080835404028352916020019161096a565b820191906000526020600020905b81548152906001019060200180831161094d57829003601f168201915b505050505081565b600061097d82610c46565b6109bc576040517f08c379a00000000000000000000000000000000000000000000000000000000081526004016109b3906112df565b60405180910390fd5b60006109c78361065c565b90508073ffffffffffffffffffffffffffffffffffffffff168473ffffffffffffffffffffffffffffffffffffffff161491505092915050565b600073ffffffffffffffffffffffffffffffffffffffff168273ffffffffffffffffffffffffffffffffffffffff1603610a70576040517f08c379a0000000000000000000000000000000000000000000000000000000008152600401610a6790611371565b60405180910390fd5b8273ffffffffffffffffffffffffffffffffffffffff16610a908261065c565b73ffffffffffffffffffffffffffffffffffffffff1614610ae6576040517f08c379a0000000000000000000000000000000000000000000000000000000008152600401610add90611403565b60405180910390fd5b6001600460008573ffffffffffffffffffffffffffffffffffffffff1673ffffffffffffffffffffffffffffffffffffffff1681526020019081526020016000206000828254610b369190611452565b925050819055506001600460008473ffffffffffffffffffffffffffffffffffffffff1673ffffffffffffffffffffffffffffffffffffffff1681526020019081526020016000206000828254610b8d9190611486565b92505081905550816003600083815260200190815260200160002060006101000a81548173ffffffffffffffffffffffffffffffffffffffff021916908373ffffffffffffffffffffffffffffffffffffffff160217905550808273ffffffffffffffffffffffffffffffffffffffff168473ffffffffffffffffffffffffffffffffffffffff167fddf252ad1be2c89b69c2b068fc378daa952ba7f163c4a11628f55a4df523b3ef60405160405180910390a4505050565b6000806003600084815260200190815260200160002060009054906101000a900473ffffffffffffffffffffffffffffffffffffffff169050600073ffffffffffffffffffffffffffffffffffffffff168173ffffffffffffffffffffffffffffffffffffffff161415915050919050565b600080fd5b60007fffffffff0000000000000000000000000000000000000000000000000000000082169050919050565b610cf281610cbd565b8114610cfd57600080fd5b50565b600081359050610d0f81610ce9565b92915050565b600060208284031215610d2b57610d2a610cb8565b5b6000610d3984828501610d00565b91505092915050565b60008115159050919050565b610d5781610d42565b82525050565b6000602082019050610d726000830184610d4e565b92915050565b600081519050919050565b600082825260208201905092915050565b60005b83811015610db2578082015181840152602081019050610d97565b83811115610dc1576000848401525b50505050565b6000601f19601f8301169050919050565b6000610de382610d78565b610ded8185610d83565b9350610dfd818560208601610d94565b610e0681610dc7565b840191505092915050565b60006020820190508181036000830152610e2b8184610dd8565b905092915050565b600073ffffffffffffffffffffffffffffffffffffffff82169050919050565b6000610e5e82610e33565b9050919050565b610e6e81610e53565b8114610e7957600080fd5b50565b600081359050610e8b81610e65565b92915050565b6000819050919050565b610ea481610e91565b8114610eaf57600080fd5b50565b600081359050610ec181610e9b565b92915050565b60008060408385031215610ede57610edd610cb8565b5b6000610eec85828601610e7c565b9250506020610efd85828601610eb2565b9150509250929050565b610f1081610e91565b82525050565b6000602082019050610f2b6000830184610f07565b92915050565b600080600060608486031215610f4a57610f49610cb8565b5b6000610f5886828701610e7c565b9350506020610f6986828701610e7c565b9250506040610f7a86828701610eb2565b9150509250925092565b600060208284031215610f9a57610f99610cb8565b5b6000610fa884828501610eb2565b91505092915050565b610fba81610e53565b82525050565b6000602082019050610fd56000830184610fb1565b92915050565b600060208284031215610ff157610ff0610cb8565b5b6000610fff84828501610e7c565b91505092915050565b7f4e487b7100000000000000000000000000000000000000000000000000000000600052602260045260246000fd5b6000600282049050600182168061104f57607f821691505b60208210810361106257611061611008565b5b50919050565b7f4572726f72202d20617070726f76616c20746f2063757272656e74206f776e6560008201527f7200000000000000000000000000000000000000000000000000000000000000602082015250565b60006110c4602183610d83565b91506110cf82611068565b604082019050919050565b600060208201905081810360008301526110f3816110b7565b9050919050565b7f43757272656e742063616c6c6572206973206e6f7420746865206f776e657200600082015250565b6000611130601f83610d83565b915061113b826110fa565b602082019050919050565b6000602082019050818103600083015261115f81611123565b9050919050565b7f676c6f62616c20696e646578206f7574206f6620626f756e6421000000000000600082015250565b600061119c601a83610d83565b91506111a782611166565b602082019050919050565b600060208201905081810360008301526111cb8161118f565b9050919050565b7f4e487b7100000000000000000000000000000000000000000000000000000000600052603260045260246000fd5b7f6f776e657220717565727920666f72206e6f6e2d6578697374616e7420746f6b60008201527f656e000000000000000000000000000000000000000000000000000000000000602082015250565b600061125d602283610d83565b915061126882611201565b604082019050919050565b6000602082019050818103600083015261128c81611250565b9050919050565b7f746f6b656e20646f6573206e6f74206578697374000000000000000000000000600082015250565b60006112c9601483610d83565b91506112d482611293565b602082019050919050565b600060208201905081810360008301526112f8816112bc565b9050919050565b7f4572726f72202d455243373231205472616e7366657220746f20746865207a6560008201527f726f206164647265737300000000000000000000000000000000000000000000602082015250565b600061135b602a83610d83565b9150611366826112ff565b604082019050919050565b6000602082019050818103600083015261138a8161134e565b9050919050565b7f547279696e6720746f207472616e73666572206164647265737320646f65732060008201527f6e6f74206f776e00000000000000000000000000000000000000000000000000602082015250565b60006113ed602783610d83565b91506113f882611391565b604082019050919050565b6000602082019050818103600083015261141c816113e0565b9050919050565b7f4e487b7100000000000000000000000000000000000000000000000000000000600052601160045260246000fd5b600061145d82610e91565b915061146883610e91565b92508282101561147b5761147a611423565b5b828203905092915050565b600061149182610e91565b915061149c83610e91565b9250827fffffffffffffffffffffffffffffffffffffffffffffffffffffffffffffffff038211156114d1576114d0611423565b5b82820190509291505056fea2646970667358221220c8947a755fe14d39a7629ab129002295c6b62b4277a2dc87cb8053596680e7a664736f6c634300080d0033",
  "immutableReferences": {},
  "source": "// SPDX-License-Identifier: MIT\r\npragma solidity ^0.8.0;\r\n\r\nimport './ERC721Metadata.sol';\r\nimport './ERC721Enumerable.sol';\r\n\r\ncontract ERC721Connector is ERC721Metadata, ERC721Enumerable {\r\n\r\n    constructor(string memory name, string memory symbol) ERC721Metadata(name, symbol) {\r\n    }\r\n}",
  "sourcePath": "C:\\Users\\venuh\\nft-projects\\nft-marketplace-starter-kit-main\\nft-marketplace-starter-kit-main\\src\\contracts\\ERC721Connector.sol",
  "compiler": {
    "name": "solc",
    "version": "0.8.13+commit.abaa5c0e.Emscripten.clang"
  },
  "schemaVersion": "3.4.6",
  "updatedAt": "2022-03-29T16:40:31.987Z",
  "devdoc": {
    "kind": "dev",
    "methods": {
      "supportsInterface(bytes4)": {
        "details": "Interface identification is specified in ERC-165. This function  uses less than 30,000 gas.",
        "params": {
          "interfaceID": "The interface identifier, as specified in ERC-165"
        },
        "returns": {
          "_0": "`true` if the contract implements `interfaceID` and  `interfaceID` is not 0xffffffff, `false` otherwise"
        }
      },
      "totalSupply()": {
        "returns": {
          "_0": "A count of valid NFTs tracked by this contract, where each one of  them has an assigned and queryable owner not equal to the zero address"
        }
      }
    },
    "version": 1
  },
  "userdoc": {
    "kind": "user",
    "methods": {
      "supportsInterface(bytes4)": {
        "notice": "Query if a contract implements an interface"
      },
      "totalSupply()": {
        "notice": "Count NFTs tracked by this contract"
      }
    },
    "version": 1
  }
}