{
  "contractName": "KryptoBird",
  "abi": [
    {
      "inputs": [],
      "stateMutability": "nonpayable",
      "type": "constructor"
    },
    {
      "anonymous": false,
      "inputs": [
        {
          "indexed": true,
          "internalType": "address",
          "name": "_owner",
          "type": "address"
        },
        {
          "indexed": true,
          "internalType": "address",
          "name": "_approved",
          "type": "address"
        },
        {
          "indexed": true,
          "internalType": "uint256",
          "name": "_tokenId",
          "type": "uint256"
        }
      ],
      "name": "Approval",
      "type": "event"
    },
    {
      "anonymous": false,
      "inputs": [
        {
          "indexed": true,
          "internalType": "address",
          "name": "_from",
          "type": "address"
        },
        {
          "indexed": true,
          "internalType": "address",
          "name": "_to",
          "type": "address"
        },
        {
          "indexed": true,
          "internalType": "uint256",
          "name": "_tokenId",
          "type": "uint256"
        }
      ],
      "name": "Transfer",
      "type": "event"
    },
    {
      "inputs": [
        {
          "internalType": "uint256",
          "name": "",
          "type": "uint256"
        }
      ],
      "name": "KryptoBirdz",
      "outputs": [
        {
          "internalType": "string",
          "name": "",
          "type": "string"
        }
      ],
      "stateMutability": "view",
      "type": "function",
      "constant": true
    },
    {
      "inputs": [],
      "name": "_name",
      "outputs": [
        {
          "internalType": "string",
          "name": "",
          "type": "string"
        }
      ],
      "stateMutability": "view",
      "type": "function",
      "constant": true
    },
    {
      "inputs": [],
      "name": "_symbol",
      "outputs": [
        {
          "internalType": "string",
          "name": "",
          "type": "string"
        }
      ],
      "stateMutability": "view",
      "type": "function",
      "constant": true
    },
    {
      "inputs": [
        {
          "internalType": "address",
          "name": "_to",
          "type": "address"
        },
        {
          "internalType": "uint256",
          "name": "_tokenId",
          "type": "uint256"
        }
      ],
      "name": "approve",
      "outputs": [],
      "stateMutability": "nonpayable",
      "type": "function"
    },
    {
      "inputs": [
        {
          "internalType": "address",
          "name": "_owner",
          "type": "address"
        }
      ],
      "name": "balanceOf",
      "outputs": [
        {
          "internalType": "uint256",
          "name": "",
          "type": "uint256"
        }
      ],
      "stateMutability": "view",
      "type": "function",
      "constant": true
    },
    {
      "inputs": [],
      "name": "name",
      "outputs": [
        {
          "internalType": "string",
          "name": "",
          "type": "string"
        }
      ],
      "stateMutability": "view",
      "type": "function",
      "constant": true
    },
    {
      "inputs": [
        {
          "internalType": "uint256",
          "name": "_tokenId",
          "type": "uint256"
        }
      ],
      "name": "ownerOf",
      "outputs": [
        {
          "internalType": "address",
          "name": "",
          "type": "address"
        }
      ],
      "stateMutability": "view",
      "type": "function",
      "constant": true
    },
    {
      "inputs": [
        {
          "internalType": "bytes4",
          "name": "interfaceID",
          "type": "bytes4"
        }
      ],
      "name": "supportsInterface",
      "outputs": [
        {
          "internalType": "bool",
          "name": "",
          "type": "bool"
        }
      ],
      "stateMutability": "view",
      "type": "function",
      "constant": true
    },
    {
      "inputs": [],
      "name": "symbol",
      "outputs": [
        {
          "internalType": "string",
          "name": "",
          "type": "string"
        }
      ],
      "stateMutability": "view",
      "type": "function",
      "constant": true
    },
    {
      "inputs": [
        {
          "internalType": "uint256",
          "name": "index",
          "type": "uint256"
        }
      ],
      "name": "tokenByIndex",
      "outputs": [
        {
          "internalType": "uint256",
          "name": "",
          "type": "uint256"
        }
      ],
      "stateMutability": "view",
      "type": "function",
      "constant": true
    },
    {
      "inputs": [
        {
          "internalType": "address",
          "name": "owner",
          "type": "address"
        },
        {
          "internalType": "uint256",
          "name": "index",
          "type": "uint256"
        }
      ],
      "name": "tokenOfOwnerByIndex",
      "outputs": [
        {
          "internalType": "uint256",
          "name": "",
          "type": "uint256"
        }
      ],
      "stateMutability": "view",
      "type": "function",
      "constant": true
    },
    {
      "inputs": [],
      "name": "totalSupply",
      "outputs": [
        {
          "internalType": "uint256",
          "name": "",
          "type": "uint256"
        }
      ],
      "stateMutability": "view",
      "type": "function",
      "constant": true
    },
    {
      "inputs": [
        {
          "internalType": "address",
          "name": "_from",
          "type": "address"
        },
        {
          "internalType": "address",
          "name": "_to",
          "type": "address"
        },
        {
          "internalType": "uint256",
          "name": "_tokenId",
          "type": "uint256"
        }
      ],
      "name": "transferFrom",
      "outputs": [],
      "stateMutability": "nonpayable",
      "type": "function"
    },
    {
      "inputs": [
        {
          "internalType": "string",
          "name": "_KryptoBird",
          "type": "string"
        }
      ],
      "name": "mint",
      "outputs": [],
      "stateMutability": "nonpayable",
      "type": "function"
    }
  ],
  "bytecode": "0x60806040523480156200001157600080fd5b506040518060400160405280600a81526020017f4b727970746f42697264000000000000000000000000000000000000000000008152506040518060400160405280600681526020017f4b424952445a00000000000000000000000000000000000000000000000000008152508181620000b17f01ffc9a7a5cef8baa21ed3c5c0d7e23accb804b619e9333b597f47a0d84076e26200020a60201b60201c565b620001047f13b182f4c0e5b2efbac0efe6cf6d756c8b89f4b79c5707a043ed9ea740574ee97f7feaf19471f34a12a7eaf32d5f3090aa2260ea8624dc8a138e74e0bf0f623076186200020a60201b60201c565b81600190805190602001906200011c929190620002e1565b50806002908051906020019062000135929190620002e1565b5050506200018d7f3a6eb71757dfc6e784c1459d26270140c2c147d95ca985c80026fc5301c3eca1807f8a7e378434598edc36d108689a030cbc9d7d465de4f74c71bae1028eed6a881b18186200020a60201b60201c565b620002027f8230223f691b981717299fae9549350a0d894555723531f02108b1f522c1a7977f6da5e1284143cdd2d15038a59bde3be031250f00291d64494c12d967b3a4e0c37fc53637662700e6c65104059db8bba34439e0c32483ab7c34e3ccae52c739549518186200020a60201b60201c565b505062000478565b63ffffffff60e01b817bffffffffffffffffffffffffffffffffffffffffffffffffffffffff19160362000275576040517f08c379a00000000000000000000000000000000000000000000000000000000081526004016200026c90620003f2565b60405180910390fd5b6001600080837bffffffffffffffffffffffffffffffffffffffffffffffffffffffff19167bffffffffffffffffffffffffffffffffffffffffffffffffffffffff1916815260200190815260200160002060006101000a81548160ff02191690831515021790555050565b828054620002ef9062000443565b90600052602060002090601f0160209004810192826200031357600085556200035f565b82601f106200032e57805160ff19168380011785556200035f565b828001600101855582156200035f579182015b828111156200035e57825182559160200191906001019062000341565b5b5090506200036e919062000372565b5090565b5b808211156200038d57600081600090555060010162000373565b5090565b600082825260208201905092915050565b7f496e76616c696420696e74657266616365207265717565737400000000000000600082015250565b6000620003da60198362000391565b9150620003e782620003a2565b602082019050919050565b600060208201905081810360008301526200040d81620003cb565b9050919050565b7f4e487b7100000000000000000000000000000000000000000000000000000000600052602260045260246000fd5b600060028204905060018216806200045c57607f821691505b60208210810362000472576200047162000414565b5b50919050565b611f1180620004886000396000f3fe608060405234801561001057600080fd5b50600436106100ea5760003560e01c80636352211e1161008c578063a3a1ff5811610066578063a3a1ff5814610271578063b09f1266146102a1578063d28d8852146102bf578063d85d3d27146102dd576100ea565b80636352211e146101f357806370a082311461022357806395d89b4114610253576100ea565b806318160ddd116100c857806318160ddd1461015957806323b872dd146101775780632f745c59146101935780634f6ccce7146101c3576100ea565b806301ffc9a7146100ef57806306fdde031461011f578063095ea7b31461013d575b600080fd5b6101096004803603810190610104919061136d565b6102f9565b60405161011691906113b5565b60405180910390f35b610127610360565b6040516101349190611469565b60405180910390f35b6101576004803603810190610152919061151f565b6103f2565b005b61016161058d565b60405161016e919061156e565b60405180910390f35b610191600480360381019061018c9190611589565b61059a565b005b6101ad60048036038101906101a8919061151f565b6105bd565b6040516101ba919061156e565b60405180910390f35b6101dd60048036038101906101d891906115dc565b61066d565b6040516101ea919061156e565b60405180910390f35b61020d600480360381019061020891906115dc565b6106de565b60405161021a9190611618565b60405180910390f35b61023d60048036038101906102389190611633565b61078f565b60405161024a919061156e565b60405180910390f35b61025b61084d565b6040516102689190611469565b60405180910390f35b61028b600480360381019061028691906115dc565b6108df565b6040516102989190611469565b60405180910390f35b6102a961098b565b6040516102b69190611469565b60405180910390f35b6102c7610a19565b6040516102d49190611469565b60405180910390f35b6102f760048036038101906102f29190611795565b610aa7565b005b6000806000837bffffffffffffffffffffffffffffffffffffffffffffffffffffffff19167bffffffffffffffffffffffffffffffffffffffffffffffffffffffff1916815260200190815260200160002060009054906101000a900460ff169050919050565b60606001805461036f9061180d565b80601f016020809104026020016040519081016040528092919081815260200182805461039b9061180d565b80156103e85780601f106103bd576101008083540402835291602001916103e8565b820191906000526020600020905b8154815290600101906020018083116103cb57829003601f168201915b5050505050905090565b60006103fd826106de565b90508073ffffffffffffffffffffffffffffffffffffffff168373ffffffffffffffffffffffffffffffffffffffff160361046d576040517f08c379a0000000000000000000000000000000000000000000000000000000008152600401610464906118b0565b60405180910390fd5b8073ffffffffffffffffffffffffffffffffffffffff163373ffffffffffffffffffffffffffffffffffffffff16146104db576040517f08c379a00000000000000000000000000000000000000000000000000000000081526004016104d29061191c565b60405180910390fd5b826005600084815260200190815260200160002060006101000a81548173ffffffffffffffffffffffffffffffffffffffff021916908373ffffffffffffffffffffffffffffffffffffffff160217905550818373ffffffffffffffffffffffffffffffffffffffff168273ffffffffffffffffffffffffffffffffffffffff167f8c5be1e5ebec7d5bd14f71427d1e84f3dd0314c0f7b2291e5b200ac8c7c3b92560405160405180910390a4505050565b6000600680549050905090565b6105a43382610baa565b6105ad57600080fd5b6105b8838383610c39565b505050565b60006105c88361078f565b8210610609576040517f08c379a000000000000000000000000000000000000000000000000000000000815260040161060090611988565b60405180910390fd5b600860008473ffffffffffffffffffffffffffffffffffffffff1673ffffffffffffffffffffffffffffffffffffffff168152602001908152602001600020828154811061065a576106596119a8565b5b9060005260206000200154905092915050565b600061067761058d565b82106106b8576040517f08c379a00000000000000000000000000000000000000000000000000000000081526004016106af90611988565b60405180910390fd5b600682815481106106cc576106cb6119a8565b5b90600052602060002001549050919050565b6000806003600084815260200190815260200160002060009054906101000a900473ffffffffffffffffffffffffffffffffffffffff169050600073ffffffffffffffffffffffffffffffffffffffff168173ffffffffffffffffffffffffffffffffffffffff1603610786576040517f08c379a000000000000000000000000000000000000000000000000000000000815260040161077d90611a49565b60405180910390fd5b80915050919050565b60008073ffffffffffffffffffffffffffffffffffffffff168273ffffffffffffffffffffffffffffffffffffffff16036107ff576040517f08c379a00000000000000000000000000000000000000000000000000000000081526004016107f690611a49565b60405180910390fd5b610846600460008473ffffffffffffffffffffffffffffffffffffffff1673ffffffffffffffffffffffffffffffffffffffff168152602001908152602001600020610e5e565b9050919050565b60606002805461085c9061180d565b80601f01602080910402602001604051908101604052809291908181526020018280546108889061180d565b80156108d55780601f106108aa576101008083540402835291602001916108d5565b820191906000526020600020905b8154815290600101906020018083116108b857829003601f168201915b5050505050905090565b600a81815481106108ef57600080fd5b90600052602060002001600091509050805461090a9061180d565b80601f01602080910402602001604051908101604052809291908181526020018280546109369061180d565b80156109835780601f1061095857610100808354040283529160200191610983565b820191906000526020600020905b81548152906001019060200180831161096657829003601f168201915b505050505081565b600280546109989061180d565b80601f01602080910402602001604051908101604052809291908181526020018280546109c49061180d565b8015610a115780601f106109e657610100808354040283529160200191610a11565b820191906000526020600020905b8154815290600101906020018083116109f457829003601f168201915b505050505081565b60018054610a269061180d565b80601f0160208091040260200160405190810160405280929190818152602001828054610a529061180d565b8015610a9f5780601f10610a7457610100808354040283529160200191610a9f565b820191906000526020600020905b815481529060010190602001808311610a8257829003601f168201915b505050505081565b600b81604051610ab79190611aa5565b908152602001604051809103902060009054906101000a900460ff1615610b13576040517f08c379a0000000000000000000000000000000000000000000000000000000008152600401610b0a90611b2e565b60405180910390fd5b600a81908060018154018082558091505060019003906000526020600020016000909190919091509080519060200190610b4e92919061125e565b5060006001600a80549050610b639190611b7d565b9050610b6f3382610e6c565b6001600b83604051610b819190611aa5565b908152602001604051809103902060006101000a81548160ff0219169083151502179055505050565b6000610bb582610e8d565b610bf4576040517f08c379a0000000000000000000000000000000000000000000000000000000008152600401610beb90611bfd565b60405180910390fd5b6000610bff836106de565b90508073ffffffffffffffffffffffffffffffffffffffff168473ffffffffffffffffffffffffffffffffffffffff161491505092915050565b600073ffffffffffffffffffffffffffffffffffffffff168273ffffffffffffffffffffffffffffffffffffffff1603610ca8576040517f08c379a0000000000000000000000000000000000000000000000000000000008152600401610c9f90611c8f565b60405180910390fd5b8273ffffffffffffffffffffffffffffffffffffffff16610cc8826106de565b73ffffffffffffffffffffffffffffffffffffffff1614610d1e576040517f08c379a0000000000000000000000000000000000000000000000000000000008152600401610d1590611d21565b60405180910390fd5b610d65600460008573ffffffffffffffffffffffffffffffffffffffff1673ffffffffffffffffffffffffffffffffffffffff168152602001908152602001600020610eff565b610dac600460008473ffffffffffffffffffffffffffffffffffffffff1673ffffffffffffffffffffffffffffffffffffffff168152602001908152602001600020610f22565b816003600083815260200190815260200160002060006101000a81548173ffffffffffffffffffffffffffffffffffffffff021916908373ffffffffffffffffffffffffffffffffffffffff160217905550808273ffffffffffffffffffffffffffffffffffffffff168473ffffffffffffffffffffffffffffffffffffffff167fddf252ad1be2c89b69c2b068fc378daa952ba7f163c4a11628f55a4df523b3ef60405160405180910390a4505050565b600081600001549050919050565b610e768282610f41565b610e7f816110f2565b610e89828261113b565b5050565b6000806003600084815260200190815260200160002060009054906101000a900473ffffffffffffffffffffffffffffffffffffffff169050600073ffffffffffffffffffffffffffffffffffffffff168173ffffffffffffffffffffffffffffffffffffffff161415915050919050565b610f17600182600001546111ff90919063ffffffff16565b816000018190555050565b6001816000016000828254610f379190611d41565b9250508190555050565b600073ffffffffffffffffffffffffffffffffffffffff168273ffffffffffffffffffffffffffffffffffffffff1603610fb0576040517f08c379a0000000000000000000000000000000000000000000000000000000008152600401610fa790611de3565b60405180910390fd5b610fb981610e8d565b15610ff9576040517f08c379a0000000000000000000000000000000000000000000000000000000008152600401610ff090611e4f565b60405180910390fd5b816003600083815260200190815260200160002060006101000a81548173ffffffffffffffffffffffffffffffffffffffff021916908373ffffffffffffffffffffffffffffffffffffffff160217905550611092600460008473ffffffffffffffffffffffffffffffffffffffff1673ffffffffffffffffffffffffffffffffffffffff168152602001908152602001600020610f22565b808273ffffffffffffffffffffffffffffffffffffffff16600073ffffffffffffffffffffffffffffffffffffffff167fddf252ad1be2c89b69c2b068fc378daa952ba7f163c4a11628f55a4df523b3ef60405160405180910390a45050565b6006805490506007600083815260200190815260200160002081905550600681908060018154018082558091505060019003906000526020600020016000909190919091505550565b600860008373ffffffffffffffffffffffffffffffffffffffff1673ffffffffffffffffffffffffffffffffffffffff168152602001908152602001600020805490506009600083815260200190815260200160002081905550600860008373ffffffffffffffffffffffffffffffffffffffff1673ffffffffffffffffffffffffffffffffffffffff1681526020019081526020016000208190806001815401808255809150506001900390600052602060002001600090919091909150555050565b600082821115611244576040517f08c379a000000000000000000000000000000000000000000000000000000000815260040161123b90611ebb565b60405180910390fd5b600082846112529190611b7d565b90508091505092915050565b82805461126a9061180d565b90600052602060002090601f01602090048101928261128c57600085556112d3565b82601f106112a557805160ff19168380011785556112d3565b828001600101855582156112d3579182015b828111156112d25782518255916020019190600101906112b7565b5b5090506112e091906112e4565b5090565b5b808211156112fd5760008160009055506001016112e5565b5090565b6000604051905090565b600080fd5b600080fd5b60007fffffffff0000000000000000000000000000000000000000000000000000000082169050919050565b61134a81611315565b811461135557600080fd5b50565b60008135905061136781611341565b92915050565b6000602082840312156113835761138261130b565b5b600061139184828501611358565b91505092915050565b60008115159050919050565b6113af8161139a565b82525050565b60006020820190506113ca60008301846113a6565b92915050565b600081519050919050565b600082825260208201905092915050565b60005b8381101561140a5780820151818401526020810190506113ef565b83811115611419576000848401525b50505050565b6000601f19601f8301169050919050565b600061143b826113d0565b61144581856113db565b93506114558185602086016113ec565b61145e8161141f565b840191505092915050565b600060208201905081810360008301526114838184611430565b905092915050565b600073ffffffffffffffffffffffffffffffffffffffff82169050919050565b60006114b68261148b565b9050919050565b6114c6816114ab565b81146114d157600080fd5b50565b6000813590506114e3816114bd565b92915050565b6000819050919050565b6114fc816114e9565b811461150757600080fd5b50565b600081359050611519816114f3565b92915050565b600080604083850312156115365761153561130b565b5b6000611544858286016114d4565b92505060206115558582860161150a565b9150509250929050565b611568816114e9565b82525050565b6000602082019050611583600083018461155f565b92915050565b6000806000606084860312156115a2576115a161130b565b5b60006115b0868287016114d4565b93505060206115c1868287016114d4565b92505060406115d28682870161150a565b9150509250925092565b6000602082840312156115f2576115f161130b565b5b60006116008482850161150a565b91505092915050565b611612816114ab565b82525050565b600060208201905061162d6000830184611609565b92915050565b6000602082840312156116495761164861130b565b5b6000611657848285016114d4565b91505092915050565b600080fd5b600080fd5b7f4e487b7100000000000000000000000000000000000000000000000000000000600052604160045260246000fd5b6116a28261141f565b810181811067ffffffffffffffff821117156116c1576116c061166a565b5b80604052505050565b60006116d4611301565b90506116e08282611699565b919050565b600067ffffffffffffffff821115611700576116ff61166a565b5b6117098261141f565b9050602081019050919050565b82818337600083830152505050565b6000611738611733846116e5565b6116ca565b90508281526020810184848401111561175457611753611665565b5b61175f848285611716565b509392505050565b600082601f83011261177c5761177b611660565b5b813561178c848260208601611725565b91505092915050565b6000602082840312156117ab576117aa61130b565b5b600082013567ffffffffffffffff8111156117c9576117c8611310565b5b6117d584828501611767565b91505092915050565b7f4e487b7100000000000000000000000000000000000000000000000000000000600052602260045260246000fd5b6000600282049050600182168061182557607f821691505b602082108103611838576118376117de565b5b50919050565b7f4572726f72202d20617070726f76616c20746f2063757272656e74206f776e6560008201527f7200000000000000000000000000000000000000000000000000000000000000602082015250565b600061189a6021836113db565b91506118a58261183e565b604082019050919050565b600060208201905081810360008301526118c98161188d565b9050919050565b7f43757272656e742063616c6c6572206973206e6f7420746865206f776e657200600082015250565b6000611906601f836113db565b9150611911826118d0565b602082019050919050565b60006020820190508181036000830152611935816118f9565b9050919050565b7f676c6f62616c20696e646578206f7574206f6620626f756e6421000000000000600082015250565b6000611972601a836113db565b915061197d8261193c565b602082019050919050565b600060208201905081810360008301526119a181611965565b9050919050565b7f4e487b7100000000000000000000000000000000000000000000000000000000600052603260045260246000fd5b7f6f776e657220717565727920666f72206e6f6e2d6578697374616e7420746f6b60008201527f656e000000000000000000000000000000000000000000000000000000000000602082015250565b6000611a336022836113db565b9150611a3e826119d7565b604082019050919050565b60006020820190508181036000830152611a6281611a26565b9050919050565b600081905092915050565b6000611a7f826113d0565b611a898185611a69565b9350611a998185602086016113ec565b80840191505092915050565b6000611ab18284611a74565b915081905092915050565b7f4572726f72202d206b727970746f206269726420616c7265616479206578697360008201527f7474730000000000000000000000000000000000000000000000000000000000602082015250565b6000611b186023836113db565b9150611b2382611abc565b604082019050919050565b60006020820190508181036000830152611b4781611b0b565b9050919050565b7f4e487b7100000000000000000000000000000000000000000000000000000000600052601160045260246000fd5b6000611b88826114e9565b9150611b93836114e9565b925082821015611ba657611ba5611b4e565b5b828203905092915050565b7f746f6b656e20646f6573206e6f74206578697374000000000000000000000000600082015250565b6000611be76014836113db565b9150611bf282611bb1565b602082019050919050565b60006020820190508181036000830152611c1681611bda565b9050919050565b7f4572726f72202d455243373231205472616e7366657220746f20746865207a6560008201527f726f206164647265737300000000000000000000000000000000000000000000602082015250565b6000611c79602a836113db565b9150611c8482611c1d565b604082019050919050565b60006020820190508181036000830152611ca881611c6c565b9050919050565b7f547279696e6720746f207472616e73666572206164647265737320646f65732060008201527f6e6f74206f776e00000000000000000000000000000000000000000000000000602082015250565b6000611d0b6027836113db565b9150611d1682611caf565b604082019050919050565b60006020820190508181036000830152611d3a81611cfe565b9050919050565b6000611d4c826114e9565b9150611d57836114e9565b9250827fffffffffffffffffffffffffffffffffffffffffffffffffffffffffffffffff03821115611d8c57611d8b611b4e565b5b828201905092915050565b7f4552433732313b206d696e74696e6720746f207a65726f206164647265737300600082015250565b6000611dcd601f836113db565b9150611dd882611d97565b602082019050919050565b60006020820190508181036000830152611dfc81611dc0565b9050919050565b7f4552433732313b20746f6b656e20616c7265616479206d696e74656400000000600082015250565b6000611e39601c836113db565b9150611e4482611e03565b602082019050919050565b60006020820190508181036000830152611e6881611e2c565b9050919050565b7f536166656d617468207375627472616374696f6e206f7665666c6f7700000000600082015250565b6000611ea5601c836113db565b9150611eb082611e6f565b602082019050919050565b60006020820190508181036000830152611ed481611e98565b905091905056fea26469706673582212201eecb8f4107419d57dc31f214867d12f8292b5c34804491a47d6576ef8b916ff64736f6c634300080d0033",
  "immutableReferences": {},
  "source": "// SPDX-License-Identifier: MIT\r\npragma solidity ^0.8.0;\r\n\r\nimport './ERC721Connector.sol';\r\n\r\ncontract KryptoBird is ERC721Connector{\r\n    string[] public KryptoBirdz;\r\n\r\n    mapping(string => bool) _kryptoBirdzExist;\r\n\r\n    function mint(string memory _KryptoBird) public {\r\n\r\n        require(!_kryptoBirdzExist[_KryptoBird], 'Error - krypto bird already existts');\r\n        \r\n        KryptoBirdz.push(_KryptoBird);\r\n        uint _id = KryptoBirdz.length -1;\r\n\r\n        _mint(msg.sender, _id);\r\n\r\n        _kryptoBirdzExist[_KryptoBird] = true;\r\n    }\r\n    constructor() ERC721Connector('KryptoBird', 'KBIRDZ') {\r\n    }\r\n}\r\n",
  "sourcePath": "C:\\Users\\venuh\\nft-projects\\K-Bird\\src\\contracts\\KryptoBirdz.sol",
  "compiler": {
    "name": "solc",
    "version": "0.8.13+commit.abaa5c0e.Emscripten.clang"
  },
  "schemaVersion": "3.4.6",
  "updatedAt": "2022-04-16T14:11:38.734Z",
  "networkType": "ethereum",
  "devdoc": {
    "kind": "dev",
    "methods": {
      "supportsInterface(bytes4)": {
        "details": "Interface identification is specified in ERC-165. This function  uses less than 30,000 gas.",
        "params": {
          "interfaceID": "The interface identifier, as specified in ERC-165"
        },
        "returns": {
          "_0": "`true` if the contract implements `interfaceID` and  `interfaceID` is not 0xffffffff, `false` otherwise"
        }
      },
      "totalSupply()": {
        "returns": {
          "_0": "A count of valid NFTs tracked by this contract, where each one of  them has an assigned and queryable owner not equal to the zero address"
        }
      }
    },
    "version": 1
  },
  "userdoc": {
    "kind": "user",
    "methods": {
      "supportsInterface(bytes4)": {
        "notice": "Query if a contract implements an interface"
      },
      "totalSupply()": {
        "notice": "Count NFTs tracked by this contract"
      }
    },
    "version": 1
  }
}